:020000040800F2
:10000000A8FF0020C1010008DD1D0008C91B000871
:10001000091D0008B5070008F52C000800000000C5
:10002000000000000000000000000000D3010008F4
:10003000E508000800000000D7010008BD280008FE
:10004000DB010008DB010008DB010008DB01000820
:10005000DB010008DB010008DB0100081D150008BA
:10006000DB010008DB010008DB010008DB01000800
:10007000DB010008DB010008DB010008DB010008F0
:10008000DB010008DB010008DB010008DB010008E0
:10009000B9070008DB010008DB010008DB010008EC
:1000A000DB010008DB010008DB010008DB010008C0
:1000B000DB010008DB010008DB010008DB010008B0
:1000C000DB010008DB010008DB010008DB010008A0
:1000D000DB010008812A0008DB010008DB010008C1
:1000E00019150008DB010008DB010008DB0100082E
:1000F000DB010008DB010008DB010008DB01000870
:10010000DB010008DB010008DB010008DB0100085F
:10011000DB010008DB010008DB010008DB0100084F
:10012000DB010008DB010008DB010008DB0100083F
:10013000DB0100082D0D0008DB010008DB010008D1
:10014000DB010008DB010008DB010008DB0100081F
:10015000DB010008DB010008DB010008DB0100080F
:10016000DB010008DB010008DB010008DB010008FF
:10017000DB010008DB010008DB010008DB010008EF
:10018000DB010008DB010008DB010008DB010008DF
:10019000DB010008DB010008DB010008DB010008CF
:1001A0000000000000000000DB010008DFF80CD0B8
:1001B00000F0EEFA00480047F1840008A8FF002094
:1001C0000648804706480047FEE7FEE7FEE7FEE7F1
:1001D000FEE7FEE7FEE7FEE7FEE7FEE7C1280008D0
:1001E000AD0100082DE9F05F0546002092469B46D0
:1001F00088460646814640241BE02846414647463D
:10020000224600F00EFA53465A46C01A914110D3C6
:1002100011461846224600F0F5F92D1A67EB010841
:100220004F4622460120002100F0ECF917EB0009AF
:100230004E41201EA4F10104DFDC484631462A4627
:100240004346BDE8F09F2DE9F0410024061B2546FA
:1002500071F1000605DA01240027D0EB070067EBF7
:100260000101161E73F1000605DA0027D2EB070222
:10027000012567EB0303FFF7B5FF86460E461746D9
:100280009C46AC4204D00025D0EB050E65EB010680
:1002900024B10020D2EB000760EB030C704631461E
:1002A0003A466346BDE8F0810649074A086850436C
:1002B00043F2390210440860400870470149086061
:1002C000704700001C0100206D4EC64140EA01034A
:1002D0009B0703D009E008C9121F08C0042AFAD2FC
:1002E00003E011F8013B00F8013B521EF9D27047C0
:1002F000D2B201E000F8012B491EFBD27047002268
:10030000F6E710B513460A4604461946FFF7F0FF14
:10031000204610BD421C10F8011B0029FBD1801A99
:10032000704730B504460020034600E05B1C934252
:1003300003D2E05CCD5C401BF8D030BD10B5484323
:10034000044608F025F9002805D00021002C02D031
:10035000641E0155FAE710BD2DE9FE4F804681EA83
:100360000300C00F0C46009021F0004123F000452F
:10037000B8EB0200A94105D24046214690461C46F2
:100380000B46024623F00040104347D0270DC7F329
:100390000A00C3F30A510290401A019040286BDA18
:1003A000C3F3130040F4801B0098924620B1002351
:1003B000D2EB030A63EB0B0B01985946C0F14002E4
:1003C000504600F01FF906460D4650465946019A20
:1003D00000F037F910EB08006141002487EA115260
:1003E00084EAE7731A4340D0009A62B3019A012A63
:1003F0004FEA075215DC001B61EB02014FF000428F
:1004000002EA0752CDE90042001C41F58011324654
:100410002B4600F06EF903B0BDE8F08F4046214650
:10042000F9E7001B61EB0201001C41F58013001885
:100430005B412018A2F5001747EB030140EAD57095
:10044000B6196D4111E06D084FEA360645EAC075F0
:100450004FEA0752001B61EB0201001C41F58011BD
:1004600049084FEA30000019514132462B4603B08B
:10047000BDE8F04F00F02EB90098012240000023A3
:10048000D0EB020263EBE073009821464FEAE07480
:10049000B8EB000061EB0401E9E783F000435BE7A0
:1004A00081F0004158E72DE9F04D81EA030404F0A2
:1004B000004B21F0004514464FF0000A23F00041A4
:1004C00050EA050220D054EA01021DD0C5F30A57B4
:1004D0000246C5F31303C1F31300C1F30A5640F4F7
:1004E000801543F48013A7EB0608101BD64608F2CC
:1004F000FD3873EB050002D308F1010801E0921802
:100500005B41B8F1000F03DA00200146BDE8F08D31
:1005100000204FF48011064684460EE0171B73EB53
:10052000050705D3121B63EB050306434CEA010CD8
:1005300049084FEA300092185B4150EA0107EDD1BB
:1005400052EA030012D082EA040083EA050108435C
:1005500005D0101BAB4106D20122002306E0002289
:100560004FF0004302E06FF0010253101AEB060057
:100570004CEB085110EB0A0041EB0B01BDE8F04DCC
:1005800000F0A8B80EB5C10F80EAE0700844CA07B1
:10059000002140F233438DE80E000A460B4600F07E
:1005A000A8F803B000BD00F0004230F000400AD0CF
:1005B000C10D01F56071C0F3160042EA0151C20895
:1005C00040071143704700200146704701F0004387
:1005D00030B421F0004150EA010206D00A0DA2F524
:1005E0006072C1F31301002A02DC30BC00207047A6
:1005F000440F44EAC104C100E01830BC00EBC25013
:1006000000F031B8202A04DB203A00FA02F1002081
:1006100070479140C2F1200320FA03F31943904040
:100620007047202A04DB203A21FA02F000217047AB
:1006300021FA02F3D040C2F120029140084319464A
:100640007047202A06DBCB17203A41FA02F043EA32
:10065000E07306E041FA02F3D040C2F1200291407B
:100660000843194670470029A8BF7047401C49003D
:1006700008BF20F00100704710B4B0FA80FC00FA07
:100680000CF050EA010404BF10BC704749B1CCF132
:10069000200421FA04F411FA0CF118BF01212143BE
:1006A0000843A3EB0C01CB1D4FEA00614FEA102079
:1006B00042BF002010BC704700EBC350104400291B
:1006C000A4BF10BC7047401C490008BF20F00100C7
:1006D00010BC704710B5141E73F1000408DA401CFA
:1006E00041F1000192185B411A4301D120F0010051
:1006F00010BD2DE9F04D92469B4611B1B1FA81F241
:1007000002E0B0FA80F220329046FFF77BFF044609
:100710000F4640EA0A0041EA0B0153465A46084395
:1007200013D0114653EA010019D0C8F140025046D7
:10073000FFF777FF05460E46504659464246FFF7FB
:1007400061FF084305D0012004E020463946BDE89A
:10075000F08D0020054346EAE0762C4337430A98A3
:100760006305E40AA0EB08000022FD0A44EA4754AE
:100770000A3002D500200146E9E701051019694158
:10078000DDE9084500196941BDE8F04DA2E7000028
:10079000064C074D06E0E06840F0010394E80700CE
:1007A00098471034AC42F6D3FFF704FD34E3000859
:1007B00054E30008FEE70000F0B5234C85B0208824
:1007C000000A06D02148016841F02001016005B00F
:1007D000F0BD1E486A4600210C3800F03BF89DF839
:1007E000090020B1208840F400702080EFE70198D4
:1007F000019900F00F00C1F303162588C300002201
:10080000C5F3C401042E01D030B106E0042904D19F
:1008100045F48070208000E0228000206E460C4F5E
:100820009DF80A500DE0311800EB030CC97A07F867
:100830000C102188491C2180C9B2632900D922806B
:10084000401C8542EFD8C2E7140000200C64004031
:10085000FB01002010B500EB0113D3F8B04114F0F8
:1008600004041472D3F8B04134D0E408C2F8044050
:10087000D3F8B04104F002045472D3F8B44104F048
:100880000F049472D3F8B441240AD474D3F8B84155
:10089000D472D3F8B841240A1473D3F8B841240CA5
:1008A0005473D3F8B841240E9473D3F8BC41D47375
:1008B000D3F8BC41240A1474D3F8BC41240C5474FA
:1008C000D3F8BC311B0E937439B1016941F020019A
:1008D000016110BD640D1460CAE7C16841F02001D8
:1008E000C16010BD7047000003490A681044886069
:1008F0000A689042FCD870471C00002001494861FA
:100900007047000000900240044A0029D16901D0DC
:10091000014300E08143D161704700000090024034
:1009200005490028886902D040F0020001E020F06B
:10093000020088617047000000900240F0B5124E3E
:1009400000244FF0004744F2F45C551E706013E041
:1009500000EB44131F60C4EBC41E0EEB4E0E01EB04
:100960008E0EC3E901CEAC4204D203F1200EC3F8CF
:100970000CE000E0D860641C9442E9D30349C860ED
:1009800003483061F0BD00003C00002000900240B0
:1009900080270020426811B122F0004101E042F0BE
:1009A000004141607047000005490028886902D075
:1009B00040F4005001E020F40050886170470000CE
:1009C00000900240F0B50F4C00234FF48016551EE6
:1009D000206011E000EB43142660C3EBC31707EB64
:1009E000470701EB8707A760AB4203D204F120075A
:1009F000E76000E0E0605B1C9342EBD302490861D2
:100A0000F0BD00003C0000200090024002680A4354
:100A10000260704710B501214C06204601F062FBD0
:100A20002046BDE81040002101F05CBB024801688F
:100A300041F02001016070470087024002480168D0
:100A400041F00801016070470087024038B500217D
:100A5000094C00910028206802D040F0800001E09D
:100A600020F080002060206800900120FFF73CFF0C
:100A70000098206038BD00000090024038B5064C58
:100A8000A06940F48010A061A06900900120FFF7E8
:100A90002BFF0098A06138BD009002402DE9FE4375
:100AA0000121172001F012FB0121880301F03EFB18
:100AB00003268DF8056002254FF400708DF8045070
:100AC0000024DFF8288100908DF806408DF807405B
:100AD0006946404600F0E4FE2907480001F0C4FBE7
:100AE000012001F0DBFD8DF8056086208DF80450B3
:100AF0003F4E00908DF806408DF80740694630461D
:100B000000F0CEFE0B220121304600F01AFF0B222E
:100B10000221304600F015FF0B220721304600F07D
:100B200010FF4FF46050334F00906946384600F094
:100B3000B7FE314890F8200001280AD1202000900B
:100B40006946384600F0ACFE0B220521384600F01D
:100B5000F8FE0B221146384600F0F3FE0B220C2162
:100B6000384600F0EEFE0B220D21384600F0E9FE7B
:100B70003220009069464746404600F091FE0B2225
:100B80000121384600F0DDFE0B220421384600F03A
:100B9000D8FE0B220521384600F0D3FE40200090FD
:100BA0008DF8055001208DF804008DF806408DF871
:100BB00007006946304600F073FE4021304600F0E1
:100BC000D0FE4FF47A7502940298401C0290A8421D
:100BD000FAD34021304600F0C6FE02940298401C31
:100BE0000290A842FAD3BDE8FE830000000802404C
:100BF00000000240000402409C020020034A01461B
:100C0000002052690A4200D0012070470090024043
:100C10000068C0F30D407047074A0244106C030A95
:100C20004B710871506C020ECA70020C8A70020A75
:100C30004A7008707047000000800240034A014675
:100C4000002012680A4200D001207047008702404D
:100C50000149405870470000008002400A4800B532
:100C6000406800210268002A0BDB0268120408D4E5
:100C70000268D20505D50268920502D5FFF7C8FFC4
:100C80000146084600BD00003C000020034900204A
:100C90000968C90700D00120704700000090024099
:100CA00038B5214A002400945368116917E06D1C7F
:100CB00000951D68AD0507D51D68ED0504D40B60D2
:100CC00001238B60536808E01D68ED0511D41D6891
:100CD000AD050ED48D686D1C8D60DB6853601D689A
:100CE000002D02DB009D052DE1D30460446084608B
:100CF00038BD4B608C68641C8C608C68012C00D102
:100D00000B6053681C68C4F30D458C682D1F012CC3
:100D100002D90C68A46800E09C680968DB6853602D
:100D20000560C0E9014138BD3C00002010B54020FD
:100D3000FFF764FF012803D010BD00BF00F0DEFF05
:100D4000FFF78CFF0028F9D14020FFF7D7FDBDE861
:100D500010404FF48030FFF7D1BD00002DE9F04383
:100D600089B00026044601200096954DCDE9056026
:100D70002869894620F01C0701A801F02BFA914947
:100D80000298914A0144914202D247F0080716E0C6
:100D90008E498F4A0144914202D247F00C070EE07F
:100DA0008C498D4A0144914209D38C4908448C49AD
:100DB000884202D247F0040701E047F010072F6194
:100DC0004FF400420021484600F07CFB4FF40067DE
:100DD0004FF48048E0B1FF20FFF786FD206890B314
:100DE00005980121401C0590484600F0CFFA4007C5
:100DF00002D40598FF28F3D30598FF2808D04FF4B4
:100E0000805200214846059600F05CFB10B102E0DC
:100E1000069633E0069605980121401C0590484649
:100E200000F0B4FA800602D40598FF28F3D30598A1
:100E3000FF28EDD010214846059600F0A7FA41079B
:100E400002D5276201E007E02662800701D56661CE
:100E500012E0C4F814800FE0206A6169C00840EA1B
:100E6000510082B20021484600F02CFB00B90696E2
:100E700040F6FF70FFF738FD069810B9C4F81480EB
:100E80002762296857480140D4E901021043E2680B
:100E900054F8103F1A43104362681043A26810438D
:100EA000E26810432269104354F8142F104362681B
:100EB0001043A2681043E2681043226910430843BC
:100EC00028602E680120FFF70FFD2E60F4E9050170
:100ED0000843D4E9021211430843216908436169B8
:100EE0000843A1690843E169084368606E6801200E
:100EF000FFF7FAFC6E60206AA860606AE860A96982
:100F00004FF641700140D4E90B021043238D626B10
:100F100042EA03421043A26B1043E26B10430843C2
:100F2000A861AE690120FFF7DFFCAE61D4E91001D2
:100F30000843E861EE690120FFF7D6FCEE612A4D17
:100F4000A9692A480140D4E912021043D4E91423C4
:100F50001A431043A26D1043E26D1043226E1043FA
:100F6000626E1043A26E10430843A861AE6901206F
:100F7000FFF7BAFCAE61D4E91B010843616F54F876
:100F8000782F11430843616840EA8100A168084353
:100F900040F4000028602C680120FFF7A5FC2C60BD
:100FA000286840F0800028602C680120FFF79CFC36
:100FB0002C600698012800D0002009B0BDE8F0831D
:100FC0000080024000D3CEFEC0E1E40040F1E9FD24
:100FD00040787D0100796CFC005A6202001F0AFA19
:100FE00080F0FA020F8120FF00900240233FDEF8DC
:100FF000044803E0016841F0040101600168490709
:10100000F8D5704700870240054B8A88184402646F
:101010000A78D1F8011042EA0121416470470000CA
:101020000080024010B501214FF0F05001F04EF861
:10103000FFF7F0FC00F0E8F9FFF728FE0128FBD0ED
:101040001A4800F0FAF9194801214FF4007240F8EB
:101050001C1B002140F80C1BE0E80321102241601A
:101060000161C0E906129201016240F8102CD2031E
:1010700013118365C0E9131201664166C0E91B12B2
:1010800051124167890181674912C1674900C0F85F
:10109000841001210548FFF761FE05494860BDE85D
:1010A000104001210348FFF72FBC00002801002059
:1010B0000000002040000100044A0029D16B01D04B
:1010C000814300E00143D16370470000008002408B
:1010D00038B50021094C00910028206802D040F06A
:1010E000040001E020F0040020602068009001204E
:1010F000FFF7FAFB0098206038BD00000080024036
:1011000038B50021094C00910028206802D040F039
:10111000080001E020F00800206020680090012015
:10112000FFF7E2FB0098206038BD0000008002401D
:1011300010B54108C007024A0023FFF753F810BD5D
:1011400000CA9A3B0349A0FB0110420042EAD17059
:101150007047000000CA9A3B05490128086803D07F
:1011600020F001000860704743F201121043F9E7D4
:101170000087024070B512494A42884201DD0846A4
:1011800002E0904200DA104640F2131180FB0101A8
:10119000000A40EA01606D22A0FB02450B1203FB2E
:1011A0000252002100FB0120810641EA941005490A
:1011B000401800F01BF9BDE87040FFF737BC000095
:1011C00000204E00D61A146D70B504460AF016FAC7
:1011D0000A4A11686160111F0B68236016680D6868
:1011E0000AF014FA6068864204DA21688D4201D15F
:1011F0006D1E2560FFF7A6FF606070BD0C87024082
:1012000070B5D0E90040002C02DB06D1002804DADA
:1012100064424FF00045404200E00025FFF788FFA0
:1012200002462146284600F0E7F8FFF7E1FE0420D9
:10123000FFF704FD0128FAD070BD2DE9F041D0E997
:101240000040002C02DB06D1002804DA64424FF093
:101250000045404200E00025FFF76AFF07464FF4D3
:10126000E360FFF7F5FC06460820FFF7E7FC0128DE
:10127000FAD00420FFF7E2FC0128FAD03A462146D2
:10128000284600F0B9F8FFF7D9FB0820FFF7D6FC95
:101290000128FAD0304600F0A9F8BDE8F041FFF788
:1012A000C5BB000005490028086802D040F00200D4
:1012B00001E020F002000860704700000087024053
:1012C00070B50D004FF000010BD00024204E6C6073
:1012D0002C6033681A68002A05DA1EA001F00CFDA4
:1012E00024E025A0FAE71A6842F000721A60DC6177
:1012F0009C611A6842F040521A60C0F30C005860BA
:10130000186840F0004018601F484269520702D533
:101310000422426144601868491C800302D4FF29FA
:10132000F9D301E0FF2903D3D8683060002070BDF5
:10133000D86968609869FFF705FF2860DC619C61E7
:10134000186820F400301860D8683060012070BD43
:101350003C0000204552523A4F574E207768656E48
:10136000205472616E736D69745F44657363726952
:1013700070746F727300000054696D655374616D11
:1013800070204E554C4C00000090024018B50022D1
:101390000092124A13694FF6FF7403F01C0304EA2B
:1013A000C02018434FF4F86303EA8111014321F090
:1013B000020040F0010010610098401C009010698C
:1013C000C00702D00098FF28F6D30098FF2802D06B
:1013D000506980B218BD002018BD00000080024096
:1013E0000149086070470000048702400149086015
:1013F0007047000018870240024B19601043191D06
:1014000008607047108702400248016841F00101FE
:10141000016070470090024010B50120FFF770FE98
:10142000FFF72CFB0120FFF753FE0120FFF7BCFA6A
:10143000BDE810400120FFF773BA012101600021CF
:10144000416081604FF48042C160C0E90412D21053
:101450008161C0E9071241628162C1620163416337
:1014600040228163C0E90F122022C0E91121C1642A
:101470000165416581658022C165C0E918128166F8
:10148000C16601674167D2048167C0E91F1252102B
:10149000C0E921211311C0E92331C0F89410C0F82C
:1014A0009810C0F89C10C0E928125212C0F8A82069
:1014B0009201C0F8AC205212C0E92C21C0F8B8103B
:1014C0007047000038B500230093114B1C694FF69C
:1014D000FF7504F01C0405EAC02020434FF4F864B3
:1014E00004EA8111014341F003005A61186109487F
:1014F0000099491C00911969C90702D000998142DD
:10150000F6D30099814201D1002038BD012038BDB9
:1015100000800240FFFF0400704700001CB502205D
:1015200000F040F8012813D1684603F046FA094854
:101530000199A1F55C7141600099016006490120A3
:1015400008704103054800F00EFA022000F008F888
:101550001CBD00006002002038000020000C02408A
:101560000149086070470000143C01401CB501218E
:10157000880300F0DBFD0220FFF7F2FF01210320CA
:1015800001F092F80220009000208DF8040008205D
:101590008DF8050001208DF80600684600F012F86D
:1015A0001CBD0000064A014600201268044B0A4098
:1015B00014331B680B4202D0002A00D00120704770
:1015C000003C014030B51A498379026853B30B6877
:1015D00093430B600A1D13680468A34313600279E8
:1015E0000A441368046823431360114A08321368DD
:1015F0000468A3431360131D1C680568AC431C609A
:101600004479102C05D021440A68006802430A601E
:1016100030BD1168046821431160196800680143F6
:10162000196030BD0079084401689143016030BD04
:10163000003C014001490860704700000C3C02403A
:1016400005490028086802D040F4806001E020F4D9
:101650008060086070470000003C024070B506469C
:10166000002529B1012927D0022928D04FF440753F
:1016700000F08EF808281ED1124C206820F440702B
:101680002060206828432060206820F0F800206057
:10169000206846F0020108432060206840F4803052
:1016A000206000F075F8216821F0020121602168B6
:1016B00021F0F801216070BD4FF48075D8E74FF438
:1016C0000075D5E7103C02400B4908200A68D20398
:1016D00001D5012070470A68D20601D50520704760
:1016E0000A6812F0EF0F01D00620704709688907D9
:1016F000FBD50720704700000C3C024010B500F0FD
:1017000035F8BDE81040F320FFF794BF02480168A8
:1017100041F0004101607047103C024070B50D4639
:10172000064600F035F8082813D10A4C206820F44A
:1017300040702060206840F400702060206840F015
:1017400001002060356000F023F8216821F00101DC
:10175000216070BD103C024010B5002303E010C8AA
:1017600041F823405B1C9342F9D310BD0548006843
:10177000002805DA034804490C3801600349016078
:1017800070470000103C024023016745AB89EFCD54
:1017900008B508208DF80000FFF796FF8DF80000CF
:1017A0009DF800000128F7D09DF8000008BD00005A
:1017B0002DE9F04117460E460446B0F1006F2ED3D6
:1017C000A0072CD1FFF79AFF0020FFF739FF15483B
:1017D000254604EB870784420DD317E02868401C98
:1017E00008D0284600F0C2F80221FFF737FF08288A
:1017F00001D00DE02D1DBD42F0D307E02046316839
:10180000FFF78CFF082803D1241D361DBC42F5D3F9
:101810000120FFF715FFBDE8F041FFF777BFBDE8F6
:10182000F08100000000FF1F7CB50121102000F0B6
:101830004DFC0121082000F049FC03258DF80550DE
:1018400000247F208DF8044000908DF8064001268A
:101850008DF807606946104800F022F88DF80550B1
:101860008DF804604FF4F0400C4E00908DF8064067
:101870008DF807406946304600F012F88DF80550A3
:101880008DF8044002208DF8070000956946304627
:1018900000F006F87CBD000000100240000C024081
:1018A000F0B50023012403270D6804FA03F2154064
:1018B000954242D1D0F800C05E0007FA06F52CEA46
:1018C000050CC0F800C091F804C0D0F800E00CFA94
:1018D00006FC4CEA0E0CC0F800C091F804C0BCF144
:1018E000010F02D0BCF1020F1FD1D0F808C02CEAC2
:1018F000050CC0F808C091F805C0D0F808E00CFA53
:1019000006FC4CEA0E0CC0F808C0D0F804C02CEA63
:10191000020CC0F804C0426891F806C00CFA03FC3F
:101920001FFA8CFC42EA0C024260C268AA43C26001
:10193000CA79C568B2402A43C2605B1C102BB3D37E
:10194000F0BD4B07DB0E9A40C90810B500EB8100D3
:10195000016A0F249C40A1430162016A11430162A4
:1019600010BD4183704701837047000010B500210E
:10197000A0F100634FF48042934271D3394901448E
:10198000914201D208216BE037490144914201D2D2
:10199000102165E035490144914201D218215FE0F0
:1019A00033494FF480330144994201D2202157E05A
:1019B000304944184FF400318C4201D228214FE0C5
:1019C0002D4C04448C4201D2302149E02B4C04447C
:1019D0008C4201D2382143E0294C04448C4201D28C
:1019E00040213DE0274C04448C4201D2482137E09D
:1019F000254C04448C4201D2502131E0234C044454
:101A00008C4201D258212BE0A0F10164944201D212
:101A1000802125E01E4C0444944201D288211FE01D
:101A20001C4C0444944201D2902119E01A4C044405
:101A3000944201D2982113E0184A02449A4201D2FA
:101A4000A0210DE0164A02448A4201D2A82107E0F3
:101A500014490844B0F5202F01D2B02100E0D8216C
:101A6000084610BD00C0FFF70080FFF70040FFF7F9
:101A70000000FFF70000FEF70000FCF70000FAF797
:101A80000000F8F70000F6F70000F4F70000F2F7A6
:101A900000C0EFF70080EFF70040EFF70000EFF72E
:101AA0000000EEF70000ECF72DE9FF41434D6879A7
:101AB00001287BD1424C00266E71207901273038F5
:101AC000C0B20A2800D3EF70DFF8F88002A8C8F887
:101AD0001060C8F8146002F070FF6078303810F0C1
:101AE000FF0006D02979491C2971022860D00328FB
:101AF00061D06E70AE702E716079217A303800EB53
:101B00004002C2EBC01001EBC001A079642210FBBF
:101B100002F2E079303800EB800002EB400008442C
:101B2000A0F59050F038ADF80000607AA17A303816
:101B300000EB80026FF02F0000EB420211448DF8A1
:101B40000210E17A227B303901EB810100EB410187
:101B500011448DF80310617BA27B303901EB8101C8
:101B600000EB410111448DF80510E17B227C3039F6
:101B700001EB810100EB410111448DF80610617CFD
:101B8000A27C303901EB810100EB410010448DF85B
:101B90000700684600F0A0FD4446C4E90206094873
:101BA00008F092FBD4E9040101F016FBBDE8FF81C7
:101BB0006F70AE70A0E7AF706E709DE70E000020F2
:101BC000E401002060020020FEE7000010B588B0AC
:101BD00006F034FD06F022FE214800F053FE204CB2
:101BE000183C206806F00CFC0590606806F008FCC4
:101BF0000690A06806F004FC07900598010E00917D
:101C0000C0F30743C0F30722C1B216A001F074F875
:101C10001D4A1E4900208DE8070007AB06AA05A94A
:101C20001B4808F091FA1A4808F0CAFA184808F058
:101C300009FB03A90020FEF7EFFF9DF80F009DF8B8
:101C400011209DF810108DE807009DF80E309DF8CA
:101C50000D209DF80C100FA001F04EF808B010BD3B
:101C6000B40200202D2D2D2D2D2D2D2D2D49503A36
:101C700025642E25642E25642E25642D2D2D2D2DD5
:101C80002D2D2D2D0D0A0000FD4200080D440008E9
:101C9000D00200204C6F63616C204D61633A5B2081
:101CA000253032783A253032783A253032783A2564
:101CB0003032783A253032783A25303278205D0A51
:101CC0000000000031B50C4C00982168401AFA2839
:101CD00003D3009820600BF053F900986168401A14
:101CE00041F28831884205D300986060BDE83840F1
:101CF00002F0A2BA38BD00002C000020014802F01A
:101D0000A5BB0000D0020020FEE770B50646C868FB
:101D10000C46401CC860012805D13168216031683B
:101D2000616000216181B4F908500121A94081421C
:101D300003DD08F015FB054600E0E160216830682E
:101D4000814200DD084608F00BFBC0F11E00854211
:101D500000DB0546B4F90A00A84205DD6168A0EB86
:101D6000050041FA00F105E005DA6168A5EB000025
:101D700001FA00F1616030682168A0EB0100616840
:101D80000844606040FA05F020606581306070BDF5
:101D900038B50CA005F0CEFC06F032FB0090694689
:101DA0000C4804F05BFE0BF01FFC044641F6B562E4
:101DB00008490BF01BFB0022074920460BF021FCD1
:101DC00038BD00003232382E31382E31382E3138BD
:101DD0000000000064DF000875440008704738B553
:101DE00000214FF0006000F091F84FF4A06000F087
:101DF00073F83D208DF8000003208DF801000024C9
:101E00008DF8024001258DF80350684600F032F845
:101E100014208DF8000002208DF801008DF802409A
:101E20008DF80350684600F025F825208DF8000055
:101E30008DF801508DF802408DF80350684600F08F
:101E400019F807208DF800008DF801408DF8024048
:101E50008DF80350684600F00DF838BD00F01F0201
:101E6000012191404009800000F1E020C0F880117C
:101E70007047000030B50F22C47801780123FCB10F
:101E8000144C246801F1E02104F4E064C4F5E0643A
:101E9000C4F30724C4F10405E2404478AC408578DB
:101EA000154025432A0181F80024007800F01F0125
:101EB0008B404009800000F1E020C0F8003130BDC7
:101EC00001F01F0083404809800000F1E020C0F8C5
:101ED000803130BD0CED00E0024908430249086042
:101EE000704700000000FA050CED00E00907090E3C
:101EF000002806DA00F00F0000F1E02080F8141D41
:101F0000704700F1E02080F800147047024A114049
:101F1000014302480160704780FFFF1F08ED00E0A9
:101F2000FEB590214B48FEF7EAF94A484FF4DA61D2
:101F30009030FEF7E4F9484A464C032392F820001B
:101F4000A070E37192F82500A0714FF6FF70208118
:101F500092F82600207560750121217092F8220008
:101F6000E07092F82400A06592F82300207106200A
:101F700060700020A061E066167D36B10225012E5A
:101F800005D0022E05D0032E07D0A36602E0A3667B
:101F900004E0A16684F8521002E0A16684F8525071
:101FA000A07592F821206281217302B92073A022CA
:101FB000A274E0732074607405222063A4F88C205E
:101FC000A4F88E10A4F888302023A4F88A30E063A7
:101FD0006064A4F8502084F8540084F8550084F814
:101FE000560084F82C00A077C4F88020194A84F8A1
:101FF000781002F19001684609F00AF8012810D023
:10200000BDF8000050B101A802F0D7FCDDE90112D3
:1020100012A000F071FE16A000F06EFEBDF90000E7
:10202000FEBD0C4A0B49903201200BF06DF80020E8
:1020300001F029FAA17814A000F05EFE217B16A021
:1020400000F05AFEB4F90A101AA000F055FE012063
:10205000FEBD0000782B00209C0200202845525233
:102060004F522025642E25303964292000000000BD
:1020700050545044763220737461727475702066C7
:1020800061696C65640A0000736C6176654F6E6C03
:10209000793D25640A00000063757272656E74559F
:1020A00074634F666673657456616C69643D25643C
:1020B0000A00000063757272656E745574634F6632
:1020C000667365743D25640A00000000044A002917
:1020D000116801D0014300E08143116070470000A6
:1020E00030380240044A0029116801D0014300E061
:1020F000814311607047000010380240044A0029F3
:10210000116801D0014300E0814311607047000075
:1021100040380240044A0029116801D0014300E020
:10212000814311607047000020380240044A0029B2
:10213000116801D0014300E0814311607047000045
:1021400044380240044A0029116801D0014300E0EC
:102150008143116070470000243802407FB504209D
:1021600000F0A0FB684600F035F801986421B0FB50
:10217000F1F14FF0FF35B1F1807F0DD221F07F40BA
:102180004FF0E024401E60610F212846FFF7AEFEAD
:102190000020A0610720206100212846FFF7A6FE4D
:1021A00001210B48FFF7AAFF01214FF06060FFF704
:1021B0008DFF012140F2DF10FFF788FF0121880326
:1021C000FFF7B4FF01210802FFF7B0FF7FBD000059
:1021D0000100020070B5204A1168204C11F00C017A
:1021E00004D01F4E042903D0082903D004601BE04B
:1021F000066019E01849091F0B68C3F380550B6886
:1022000003F03F0315B1B6FBF3F301E0B4FBF3F3C6
:102210000C680968C4F388146343C1F30141491C85
:102220004900B3FBF1F1016011680F2303EA1111BA
:102230000C4B5C5C0168E14041601468072505EACD
:1022400094241C5D21FA04F48460126805EA523279
:102250009A5CD140C16070BD083802400024F4008F
:1022600040787D0150000020034A1368084323F0A2
:10227000784318431060704708380240F0B58BB0BF
:10228000044628216846FEF73AF8874F0A22694635
:102290003846FFF761FA0098401C6FD0009844F868
:1022A000080B019844F8040C0298206003986060C1
:1022B0000498000C2081049860810598000E20731A
:1022C0000598000C60730598000AA0730698000E2C
:1022D00020740698000C60740698000AA074069892
:1022E000E0740798000E20750798000C6075079839
:1022F000000AA0750798E0750898000E20760898E7
:10230000000C60760898000AA0760898E076099894
:10231000000E20770998000C60770998000AA077D2
:10232000B4F1080461A054F8081B00F0E5FC65A0B6
:10233000216800F0E1FC54F8041C68A000F0DCFC0B
:102340006DA0616800F0D8FC218973A000F0D4FC76
:10235000618977A000F0D0FCA17D7BA000F0CCFCCF
:10236000217B7EA000F0C8FCE17D82A000F0C4FCCF
:10237000617B87A000F0C0FCA17B00E020E08AA088
:1023800000F0BAFCA17E90A000F0B6FCE17E95A022
:1023900000F0B2FC217F9AA000F0AEFC617F9FA00C
:1023A00000F0AAFCA17FA3A000F0A6FC217EA7A0BC
:1023B00000F0A2FC617EACA000F09EFC0BB0F0BD72
:1023C000AF4820606FF0FF006060AD4800250C381A
:1023D000A060AB48FF26801EE06006202076042027
:1023E0006076A576E67601F0F3F9FDF75DFF90FBE8
:1023F000F6F106FB11002077FDF756FF90FBF6F192
:1024000006FB110060774FF4FA5024F8100F41F6E4
:1024100061606080A573E57325716571A571257490
:102420006574A5740120E0742575F820607580201E
:10243000A075A4F110000FC88DE80F0054F808092A
:102440000A224FEA30400490E068E17B00BA20F0B5
:10245000FF00084305902069E17C00BA20F0FF00EE
:10246000084306906069E17D00BA20F0FF00084350
:102470000790A069E17E00BA20F0FF0008430890B1
:10248000E069E17F00BA20F0FF0008430990694647
:102490003846083CFFF78CF902204FF47A71401C53
:1024A0008842FCDB3EE7000000001E0846696744E6
:1024B0006174612D3E4950616464723D307825300D
:1024C00034580A00466967446174612D3E4757617C
:1024D0006464723D3078253034580A004669674498
:1024E0006174612D3E4E45546D61726B3D307825AF
:1024F0003034580A00000000466967446174612D59
:102500003E6E747073657276616464723D307825D6
:102510003034580A00000000466967446174612D38
:102520003E4C6F63616C506F72743D25640A00000D
:10253000466967446174612D3E447374506F7274D0
:102540003D25640A00000000466967446174612DFE
:102550003E4D536F724F543D25640A0046696744EF
:102560006174612D3E576F726B4D6F64653D2564DC
:102570000A000000466967446174612D3E436C6F38
:10258000636B446F6D61696E3D25640A0000000055
:10259000466967446174612D3E69705F6D6F646563
:1025A0003D25640A00000000466967446174612D9E
:1025B0003E42726F616463617374496E74657276D2
:1025C000616C3D25640A0000466967446174612DB1
:1025D0003E53796E63496E74657276616C3D256415
:1025E0000A000000466967446174612D3E504465ED
:1025F0006C6179496E74657276616C3D25640A0080
:10260000466967446174612D3E44656C6179496E29
:1026100074657276616C3D25640A00004669674402
:102620006174612D3E636C6F636B436C6173733DCA
:1026300025640A00466967446174612D3E707269C1
:102640006F72697479313D25640A000046696744F8
:102650006174612D3E536C6176656F724D61737468
:1026600065723D25640A0000466967446174612D06
:102670003E4F66667365745F5554433D25640A009A
:102680000D01A8C001460148FFF76BB9000C0240DC
:1026900001460148FFF767B9000C02400149C1F843
:1026A000DC0070470000274210B58A0721F00304C0
:1026B0000849130F21440F22D1F808489A40944347
:1026C000C1F80848D1F8082898400243C1F8082802
:1026D00010BD0000003001401CB50188ADF80010AD
:1026E00084788DF80240C3788DF8033042798DF8F4
:1026F0000520082A03D3083A8DF805203BE0103264
:102700008DF80520012B03D95B1E8DF8033032E0D4
:10271000012C11D0641E8DF8024000BF9DF80230DC
:102720001F220D2B27D2DFE803F0260B100B0E0B18
:102730000E0B0B0E0B0E32000C228DF80220EDE773
:102740008DF8032017E01E2113E08A0707D101F559
:10275000FA626423B2FBF3F403FB1422AAB94FF428
:10276000C87201F5FA61B1FBF2F302FB131161B11A
:102770001C218DF8031081798DF80610C0798DF831
:102780000700684600F0CAF81CBD1D21F1E7491E8C
:10279000ADF80010D4E700000CB5002134480191D9
:1027A0000091026842F4803202604FF4A063026834
:1027B00002F400320092019A521C0192009A12B95E
:1027C000019A9A42F3D1026892033ED50121009109
:1027D000274940310A6842F080520A6025490A6858
:1027E00042F440420A60224908310A680A600A68D5
:1027F00042F400420A600A6842F4A0520A600B1FC9
:102800001D4A1A60026842F08072026002689201FA
:10281000FCD5174A8432136843F0005313601368E1
:1028200043F448531360026842F080620260026819
:102830001201FCD41148026841F201031048B3EBC5
:10284000124F04D140F2057203E000910CBD40F23A
:1028500005620260086820F003000860086840F024
:10286000020008600868C0F381000228FAD10CBD9C
:10287000003802400070004019544007002004E076
:10288000003C0240064902780A7042784A70827819
:102890008A70C278CA7002790A71407948717047AB
:1028A000080000204FF0E0210428086903D020F040
:1028B00004000861704740F00400FAE700F082B8B5
:1028C000124810B5016841F47001016010480168B8
:1028D00041F0010101600E4A0021083211600268D6
:1028E0000C4B1A400260031D0B4A1A60026822F466
:1028F0008022026006480C300160FFF74DFF03495B
:102900004FF000608039086010BD000088ED00E0E5
:1029100000380240FFFFF6FE103000242DE9F04F92
:10292000018885780A46A1F2B2772349AC464F4325
:1029300022496D1E224B31F91510C47801FB03F9B1
:10294000641E5C4341794FF4616311FB03FA8179A2
:1029500040F2B273C1EB01118E0000214FF0640B05
:102960004FF4C87E0DE09D070AD1B3FBFBF80BFBCB
:10297000183525B9B3FBFEF80EFB183505B9491C0F
:102980005B1C9A42EFD2BCF1020F08D8930706D124
:10299000B2FBFBF30BFB132303B902B9491E084A30
:1029A000C079514307EB0902131903EB0A023244C1
:1029B00010440844BDE8F08F8033E101CEDE00080A
:1029C00080510100024801680A310160704700002F
:1029D0001C0000202DE9F041012186B00846FFF7D8
:1029E00075FB01211020FFF7A1FBDFF88C8040462A
:1029F00000F098F8214F072209213846FEF7A1FF81
:102A000007220A213846FEF79CFF00248DF8064075
:102A1000022578158DF8045000908DF805508DF83A
:102A2000074069463846FEF73BFF6E0200968DF878
:102A3000045069463846FEF733FF4FF416500290B3
:102A4000ADF810600C20ADF80C40ADF81200ADF8F8
:102A50000E40ADF8144002A9404600F0F1F8012202
:102A600040F22551404600F0D2F80121404600F0E6
:102A70004FF806B0BDE8F0810010014000000240B0
:102A800070B51C4D40F225542146284600F0A0F8B0
:102A900000281AD02146284600F034F8164C207839
:102AA00018B917211548FDF72AFC284600F01EF931
:102AB000124922788854521CD2B200202270012A76
:102AC00004D0172A06D000D9207070BD09782329B8
:102AD000FAD170BD8A7D0A2AFBD1497D0D29F8D132
:102AE000012161712070BDE8704049030448FEF780
:102AF00038BF0000001001400E000020E40100205B
:102B0000000C02400A0A01219140C943018070472C
:102B10000029818902D041F4005101E021F40051E3
:102B200081817047224910B5884206D101211020C9
:102B3000FFF708FB0021102020E01E49884202D147
:102B400001214C0429E01C49884202D101218C0456
:102B500023E01A49884202D10121CC041DE0184922
:102B6000884202D101210C0517E01649884209D19B
:102B700001212020FFF7E6FA00212020BDE81040C7
:102B8000FFF7E0BA1049884202D101218C0704E026
:102B90000E4988420AD1012144052046FFF7BAFABE
:102BA0002046BDE810400021FFF7B4BA10BD000078
:102BB000001001400044004000480040004C00402C
:102BC000005000400014014000780040007C0040AC
:102BD00030B501F01F0201240025C1F3421304FAAD
:102BE00002F2012B0FD0022B0FD0838A4FEA112162
:102BF0000088134204FA01F400EA040001D000B195
:102C00000125284630BD8389F0E7038AEEE710B539
:102C1000C1F3421301F01F040121A140012B07D091
:102C2000022B07D01430002A026805D00A4304E0C2
:102C30000C30F8E71030F6E78A43026010BD000060
:102C40007FB50446008A0D4620F44051E8880843C9
:102C50002082A08941F20C618843A9882A89114306
:102C60006A8902431143A181A08A20F44071A88996
:102C70000843A0826846FFF7ADFA1A48844202D0A2
:102C80001948844201D1039800E00298A1890904FF
:102C900000EBC00101EB0010296801D5490000E0FC
:102CA0008900B0FBF1F26420B2FBF0F109010B09DD
:102CB0006FF018056B4302EB8302A3891D044FF0EC
:102CC000320306D503EBC202B2FBF0F000F00700BE
:102CD00005E003EB0212B2FBF0F000F00F00084336
:102CE00020817FBD00100140001401408088C0F3A6
:102CF00008007047FEE700000FB4054B10B503A9AC
:102D0000044A029800F02CF810BC5DF814FB000097
:102D100045480008280000200FB41CB50A46521E82
:102D2000CDE9000207A9054B6A46069800F018F89D
:102D3000009A002111701CBC5DF814FBC33100081F
:102D400002E008C8121F08C1002AFAD17047704774
:102D5000002001E001C1121F002AFBD170470000D2
:102D60002DE9FF4F8DB00F460546002606E02528C9
:102D70000BD0DDE90F1290476D1C761C28780028D7
:102D8000F5D111B03046BDE8F08F0024A246A1462F
:102D90000122EC4900E0044315F8013F203B02FA10
:102DA00003F00842F7D128782A2810D06FF02F02BC
:102DB0002878A0F13001092914D80AEB8A0102EB26
:102DC000410144F0020400EB010A6D1CF0E701CF61
:102DD0005FEA000A03D544F40054CAF1000A44F043
:102DE00002046D1C28782E2817D115F8010F44F025
:102DF00004042A280ED06FF02F022878A0F13001A9
:102E000009290AD809EB890102EB410100EB01090C
:102E10006D1CF2E757F8049B6D1C28786C280FD0C6
:102E200006DC4C2817D068280DD06A2814D104E09D
:102E3000742810D07A280FD10DE044F400140AE071
:102E400044F4801401E044F440146978814202D1D2
:102E500004F580146D1C6D1C2A786E2A1FD00CDCC2
:102E6000632A31D004DC002A8BD0582A11D1A3E088
:102E7000642A68D0692A0CD165E0732A2ED004DC5C
:102E80006F2A73D0702A04D19BE0752A6FD0782AFC
:102E90006ED01046DDE90F129047761C50E1C4F366
:102EA0000250022806D0032809D0042801CF09D0F7
:102EB000066045E101CFF117C0E9006140E101CFB3
:102EC00006803DE106703BE117F8040B8DF8000029
:102ED00000208DF80100EB46012003E057F804BB09
:102EE0004FF0FF3061074FF0000102D40DE008F110
:102EF0000101884649450FDA8045F8DB1BF80810C8
:102F00000029F4D108E008F1010188468142FADB8A
:102F10001BF808100029F6D1DDE90F23AAEB080001
:102F20008146214600F036F9304400EB080604E003
:102F3000DDE90F121BF8010B9047B8F10108F7D239
:102F400021464846F7E00A21C4F302534FF0000B34
:102F50000891022B04D001CFC117032B09D00AE03E
:102F6000FF1D27F00707F7E8020108E032E01FE045
:102F700020E000B2C117042B01D140B2C117031EDB
:102F800071F1000307DA4FF0000CD0EB0C006CEB92
:102F900001012D2302E0230504D52B238DF82430D5
:102FA000012303E0E30701D02023F7E7984658E028
:102FB0000A2110E010210EE010204FF0000B0890C5
:102FC0000CE010214FF0000B44F004044FF008090E
:102FD000089103E008214FF0000B0891C4F302535D
:102FE000022B04D001CF0021032B06D006E0FF1DE9
:102FF00027F00707F7E8020103E080B2042B00D1B5
:10300000C0B24FF0000823072BD5702A07D0DDF897
:1030100020C08CF0100C5CEA0B0C05D00EE04023B5
:103020008DF82430012308E050EA010306D0302354
:103030008DF824308DF8252002239846DDF820C035
:103040008CF0080C5CEA0B0C0BD150EA010301D1A7
:10305000630706D530238DF824304FF00108A9F11D
:103060000109582A04D038A20B9208AA0A920BE050
:103070003AA2F9E75B46089AFDF7B4F80B9B9B5C14
:103080000A9A521E0A92137050EA0102F2D10A986B
:10309000ADEB000000F1200B600702D524F4803472
:1030A00001E04FF00109D94502DDA9EB0B0000E07A
:1030B000002000EB0B0141440890AAEB010AE00359
:1030C00006D4DDE90F232146504600F063F806449C
:1030D0004FF0000908E009A911F80900DDE90F1215
:1030E000904709F10109761CC145F4DBE0030CD5DA
:1030F000DDE90F232146504600F04CF8064404E079
:10310000DDE90F1230209047761C0899481E089080
:103110000029F5DC08E00A980A990078491C0A9110
:10312000DDE90F129047761CBBF10001ABF1010BFA
:10313000F1DC21465046DDE90F2300F019F8064482
:103140006D1C1BE609280100303132333435363727
:1031500038396162636465660000000030313233E3
:103160003435363738394142434445460000000083
:103170002DE9F041044600251E461746880404D474
:1031800005E039462020B0476D1C641EF9D528465D
:10319000BDE8F0812DE9F041044600251E46904629
:1031A000C80301D5302700E02027880404D505E0B6
:1031B00041463846B0476D1C641EF9D52846BDE827
:1031C000F0814A68002A06D00A68531C0B60107010
:1031D0004868401E486070472DE9F34186B0354D80
:1031E000069838B907994842002900DA0146324A60
:1031F000914213DD287F00280DD1687F00280AD175
:1032000003A801F0DAFB03A906AA084608F0E9F9C9
:1032100003A808F0DDF908B0BDE8F081079C002C98
:1032200000DB2046DFF89480254E4FF48057C828F5
:103230001ADA24488178491CC9B28170C27872B9FF
:1032400005290CD92021B180042171800121C17090
:1032500089034046FEF787FB1BA0FFF74DFD39466B
:103260004046FEF780FB03E039464046FEF779FB17
:10327000B6F90410AA6994FBF1F010444FF4FA2255
:10328000A861904202DC5242904200DAAA61B6F98B
:103290000230A86994FBF3F21518CDE900040291FD
:1032A000224629460CA0FFF727FD684200F0EBF804
:1032B000B1E700006002002080969800000C0240F8
:1032C000800200203400002073796E666C616773A1
:1032D000204F4B0A00000000202025643D2025647B
:1032E0002F2564202B202564202825642F25642980
:1032F0000A2000000FB408211CB54FF6FF74FF220E
:103300006846FCF7F5FF082204A907A8FDF709F8AD
:1033100028B10822694607A8FDF703F858B9BDF897
:103320002400BDF81810884201D0A04203D101202A
:103330001CBC5DF814FB0020FAE72DE9F74F82B0C2
:10334000B2F97E5001F118001446884600264FF06D
:103350000A094FF0300A4FF00C0B009037E005EBF4
:103360004501606F01EBC50700EBC701082200981B
:10337000FCF7D7FF18BB616F082000EBC700095AA4
:10338000B8F8200081421AD105EB4501606F01EBCE
:10339000C50209EBC201425A521C4252616F0AEB4C
:1033A000C7000144029806F012FB616F0BEBC700E7
:1033B0000144029805B0BDE8F04F06F0AFBAB4F88A
:1033C00078006D1C95FBF0F100FB1155761CB4F8EC
:1033D0007800B042C3DCB4F97A1080B2884202DAD5
:1033E000401CA4F87800B4F97C00B4F97E1088423F
:1033F00009D1401CB4F8781000B290FBF1F201FB47
:103400001200A4F87C00B4F97C0054F8741F00EB9F
:10341000400202EBC00501EBC500009900F098F9ED
:1034200022680820B8F8201000EBC500115222686D
:10343000002109EBC500115221680AEBC5000144C7
:10344000029806F0C4FA21680BEBC500014402980B
:1034500006F064FAB4F90800B4F90610401C90FBB9
:10346000F1F201FB1200208105B0BDE8F08F10B42D
:103470000B68146823440360496852681144416032
:1034800010BC06F0FBBE10B54FF4FA21884202DCF6
:103490004942884200DA0846FDF76CFE012010BD63
:1034A0002DE9FC410746B2F878008846144618B961
:1034B00094F86000062802D00125002623E011467A
:1034C000404604F0D1FF94F86000BDE8FC8100BFE5
:1034D00006EB460000EBC60007EBC00205EB45001B
:1034E00000EBC50007EBC000CDE9004802F10C037A
:1034F00000F10C013030303200F01BF8002800DA07
:103500002E466D1C2DB2B4F87800A842E0DC06EB24
:10351000460000EBC600A4F87E6007EBC00002B0D6
:1035200023464246BDE8F04100F10C01303000F086
:1035300075B82DE9F0470D46DDE908A9164607469E
:103540001C46082203F1150105F11500FCF7E9FE00
:1035500000B24FF0FF3848B3A97BA27B914222D33F
:1035600058D899F8551041B1397A327AC1F38001AF
:10357000C2F38002914216D84CD3297C227C91421E
:1035800011D347D8697C627C91420CD342D8698AB6
:10359000628A914207D33DD8297D227D914202D390
:1035A00038D8002836DA4046BDE8F087E38BEA8B4E
:1035B000581C82422ED8501C9842F4D30AF128019C
:1035C00007F1180406F118009A4209D94FF00802D1
:1035D0002046FCF7A6FE00B20028E4DB1ADC16E069
:1035E0004FF0080206D2FCF79CFE00B20028DADB9E
:1035F00010DC0CE001462046FCF793FE00B20028E8
:10360000D1DB07DC388C318C8842CCD302D84FF028
:103610000000C9E74FF00100C6E700002DE9FC5F9C
:10362000064617468A4618301C46082203F1280130
:103630008346FCF776FE18B9308C218E884201D083
:10364000012500E00025E07CD0B13B4622465146F2
:10365000304607F0FDFD85B12EA1584600F0CCF8AC
:10366000D4F87006401CC4F8700694F8600009286D
:1036700003D12FA1204600F0C1F80920BDE8FC9F2E
:10368000B4F8780018B994F860000428F6D004F172
:10369000B00104F1880022468946804600F05DF8BA
:1036A000CDE900475346324649464046FFF741FFC1
:1036B000217B80291CD200281CDB22DD3B462246D0
:1036C0005146304607F0C4FD85B112A1584600F0BE
:1036D00093F8D4F87006401CC4F8700694F86000A3
:1036E000072803D112A1204600F088F80720C5E77B
:1036F000002805DA2146384604F0B6FE0620BDE76C
:10370000A3DCD4F8980600F10100C4F898064FF045
:103710000200B3E74E65772062657374206D6173B4
:103720007465722073656C65637465643A000000AB
:1037300053746174653A200002490A6810440860B5
:103740007047000084000020002101604160704744
:103750000A68026049684160704770B50646107C8F
:103760000D4688731446511C05F11500FFF7F0FF54
:10377000207B2874607B6874E0896882607C28758F
:103780000020E883611C06F11800FFF7E1FF94F8C0
:103790004E00307294F84D1040EA4100307214F837
:1037A0004C1F40EA81003072617940EAC1003072FA
:1037B000E17840EA01103072217940EA411030721C
:1037C00070BD0A6802604A684260098901817047D9
:1037D0000748036807480649091D03600968044A49
:1037E000416008321268826058181044FCF766BDC8
:1037F000107AFF1FC4020020704700007CB50D4600
:1038000006462022E4211548FCF772FD134CE42102
:1038100020462B4612A2FFF77FFA054696F8600075
:1038200007F0BAFA0346C5F1E40160190CA2FFF7EC
:1038300073FA2844C0F1E40120440AA2FFF76CFAAD
:10384000684601F0BAF8DDE9001207A0FFF754FA64
:10385000214603A0FFF750FA7CBD00000033002092
:10386000257300000A000000284E4F5449434520AC
:1038700025642E25303964292000000010B4D0E9D9
:10388000001301EBD17222F00104091B064C521007
:10389000614303EB412101EBD1714910C0E90021E3
:1038A00010BC06F0EBBC000065CD1D007CB50546E4
:1038B00001F21C500C46064606F01CFC2246294626
:1038C000304606F02BF9C8B12146284603F072FABB
:1038D00003F006FB2146284603F043FA214628461A
:1038E00004F0C2FD214604F5987005F04BFE224617
:1038F0002946042009F008FC01207CBD684601F03F
:103900005CF8DDE9001206A0FFF7F6F909A0FFF761
:10391000F3F922462946022009F0F6FB00207CBD7F
:10392000284552524F522025642E253039642920D3
:10393000000000004661696C656420746F20696E48
:10394000697469616C697A65206E6574776F726BF2
:103950000A000000F0B52DED028B83B0002506466D
:1039600081F8945491F860000C46042805D006288C
:1039700003D0072801D0092811D194F8800070B134
:1039800084F880500A463146606FFFF789FD94F84D
:103990006010814203D02246314609F0B5FB94F80D
:1039A000600004F59367801E08287DD2DFE800F0F0
:1039B00004FE08D6DA080808224631460120EFE066
:1039C0002146304601F004F83946032009F048FB4F
:1039D00000286AD0E07C70B9207BFF280BD0A4F8C7
:1039E0007850A4F87C502146304604F03DFD224634
:1039F0003146062073E094F8600004286CD0D4F8B7
:103A00007005B169884258DA94F84400FF283AD02A
:103A100094F84800FF2836D094F84900FF2832D0A7
:103A2000FF2084F8440084F8480084F84900B4F981
:103A30007E20616F02EB420303EBC2021A2303EB09
:103A4000C2028854B4F97E20616F02EB420303EB9B
:103A5000C202202303EBC2028854B4F97E20616FB6
:103A600002EB420303EBC2021C2303EBC2028854A5
:103A7000684600F0A2FFDDE9001252A0FFF73CF912
:103A800055A0FFF739F9B069002804DDD4F87005B6
:103A9000401CC4F87005684600F08FFFDDE9001295
:103AA0005AA0FFF729F901E058E01AE0B2695BA0DB
:103AB000D4F87015FFF720F913E0684600F07DFF99
:103AC000DDE900123FA0FFF717F95FA0FFF714F937
:103AD000A4F87850A4F87C5022463146042009F01E
:103AE00013FB94F86F00012802D002280AD012E0DC
:103AF0003946012009F0B4FA68B12146304603F096
:103B000049FF08E03946002009F0AAFA18B1214619
:103B1000304604F0ABF894F8550000281ED094F815
:103B2000540000281AD107F01FFDB0EE408A94F926
:103B30006C0000F030FFB4EEC08AF1EE10FA0DD840
:103B4000684600F03AFFDDE900121EA0FFF7D4F846
:103B500048A0FFF7D1F8012084F8540003B0BDEC71
:103B6000028BF0BD3946042009F07AFA18B12146DB
:103B7000304603F081FE3946022009F071FA18B18F
:103B80002146304604F05AFA2146304600F020FF24
:103B9000E07C10B9207BFF28E0D12246314604208A
:103BA00003B0BDEC028BBDE8F04000E001E009F09D
:103BB000ABBA03B02146BDEC028B3046BDE8F04005
:103BC00000F006BF285741524E494E472025642E2B
:103BD0002530396429200000474D20616E6E6F75D5
:103BE0006E63652074696D656F75742C20646973EC
:103BF0007175616C69666965642063757272656E62
:103C000074206265737420474D0A000028494E46AF
:103C10004F2025642E2530396429200057616974AE
:103C2000696E6720666F72206E6577206D617374B0
:103C300065722C202564206F6620256420617474D1
:103C4000656D7074730A00004E6F2061637469764D
:103C500065206D6173746572732070726573656E33
:103C6000742E20526573657474696E6720706F726C
:103C7000742E0A004C656170207365636F6E64205A
:103C80006576656E7420696D6D696E656E74202D44
:103C90002070617573696E6720636C6F636B206160
:103CA0006E64206F666673657420757064617465F8
:103CB000730A00002DE9F041904607461E460C4667
:103CC0000022022006F026FE0546406822463946BC
:103CD000FCF7FCFA0E21284606F0A9FF18B16FF098
:103CE0000100BDE8F0816C6801210020B8F1000FEF
:103CF000217007D080216170C221A170E070207115
:103D00000E2005E01B2161701921A170E070207167
:103D10006071134F0620401E10F0FF0007EB0001FA
:103D200004EB000291F827109171F4D148F6F700E6
:103D300004F068FBA081BA6929460948904728B178
:103D4000284606F044FF6FF00E00CAE7286930608D
:103D500068697060284606F03AFF0020C1E700005D
:103D6000D00200202DE9F84F90468946050055D035
:103D7000B8F80A002A284ED3D8F804604FF4807AA5
:103D8000344634F80E0F504545D12079062842D1EB
:103D9000607904283FD1608808283CD1D4F80E000F
:103DA0000090A169281D06D0686820B1814202D127
:103DB00001273B4601E00027022304F1080269467F
:103DC000284600F05DFAE088504524D11FB3022058
:103DD00004F018FBE080D4F80E00A0616868C4F815
:103DE0000E00A068C4F81200A089E082A0683060CC
:103DF000A089B080D9F80010A160B9F80400A081B2
:103E0000D9F80010C6F80610B9F804007081AA6944
:103E1000414628469047404606F0D9FEBDE8F88F57
:103E20002DE9FC5F0A27054600208B46DFF8C89085
:103E30003E46394601903C468646009000EB800A9B
:103E400009EB8A030A299A7C0AD0BAB165B1D5F880
:103E500000C0D3F80480C44506D140B2BDE8FC9F41
:103E6000002AF3D141B209E0012A15D0022A05D374
:103E7000DA7C009B9A4201D346B20092401CC0B249
:103E80000A28DBD35FEA8B724FF0FF30E6D40A29B1
:103E900012D014DACCB220E059F82A20002ADA7CB9
:103EA00004D07245EAD344B29646E7E7019B9A42B2
:103EB000E4D347B20192E1E75FEACB71CED00A2E9C
:103EC00001DAF4B206E00A2F01DAFCB202E00A2CB1
:103ED000C4DAE4B2204600F011F82DB104EB8402FC
:103EE00009EB82002968416004EB840209EB82003F
:103EF0000021C17460B2B1E7DCF2002070B5074C5C
:103F000000EB8005002654F8250018B106F05FFE8E
:103F100044F8256004EB8500867470BDDCF2002057
:103F20002DE9FC410E46044615460E21304606F0AA
:103F30007EFE18B16FF00100BDE8FC8121462868C3
:103F400002F0EAFF08B1344B3CE02868C0F30311EB
:103F50000E2922D0A168636800EA01020B409A4250
:103F60000BD080B2A0F57E41A93906D014F10C0F18
:103F70002FD0E06868B304F10C05284A284913786B
:103F800003EB830001EB8000877C022F24D32F6892
:103F90004068874220D11A462EE001208DF80000AB
:103FA00000208DF801005E208DF8020068786B46D5
:103FB00000F07F008DF80300A8788DF80400E87801
:103FC0008DF8050004F127023146204600F024F95F
:103FD000B2E76FF00300AFE75FF0000000EB800393
:103FE00001EB83039F7C022F0BD32F685B689F42FA
:103FF00007D1C0B2107002463146204600F012F8D8
:104000009AE7401C40B20A28E8DB3246294620469F
:1040100000F02AF890E7000068DF0008180100208F
:10402000DCF2002070B505460E460E4802EB820118
:1040300000EB8104A07C022809D1E07CE42806D3AF
:10404000211D284600F0D6F808B90320A07404F119
:104050000C0305F1270231462846BDE8704000F008
:10406000DBB80000DCF200202DE9F74F82B0884673
:1040700002984FF0FF3B27300090086814465E46D8
:10408000029902F049FFD8B9D8F80000C0F3031133
:104090000E2915D0B8F1000F12D088B10121404689
:1040A000FFF7BEFE07000DD4DFF8A0A007EB8709DD
:1040B0000AEB8905A87C40B1012808D03CB10DE08D
:1040C0006FF00D0005B0BDE8F08F0120A8744146E7
:1040D000029800F08FF80646002CF3D0A87CD0465A
:1040E00002280AD31A4805F10C0321460770009AEA
:1040F000029800F091F8064626E0012824D12046D7
:10410000017B01290ED001890022032006F002FC68
:10411000050018D0214606F0D9FC58B1284606F013
:1041200056FD10E000680028EAD12546204606F03A
:10413000D5FD45B158F8290008B106F048FD48F80A
:104140002950002600E05E463046BBE7DCF2002046
:10415000180100202DE9F05F9046894682461F46EF
:1041600000222A210320DDF82CB006F0D3FB060044
:104170003DD075680D9805F10E0404F043F9E08018
:104180003868A060B888A081DBF80010C4F812106D
:10419000BBF80400E082D8F800102960B8F80400E9
:1041A000A880D9F80010C5F80610B9F80400688195
:1041B0000A9831460068C4F80E000C980068A061A7
:1041C0004FF4807020800820608006202071042039
:1041D00060714FF4C160A881DAF81820504690470A
:1041E0000446304606F0F3FC2046BDE8F09F4FF051
:1041F000FF30FAE71FB50123064C021DCDE902137B
:10420000CDE9002400F127031946A21FFFF7A2FF02
:1042100004B010BD6EDF000830B44C681D68256026
:104220009B88A3801368C4F80630928862810822B4
:10423000A281826930BC104770B5104D002400BFC8
:1042400004EB840005EB8001887C90B1CA7C521C91
:10425000D2B2CA74F02A06D2012802D0032806D0AE
:1042600007E0022A05D32046FFF748FE01E00220BE
:104270008874641CE4B20A2CE2D370BDDCF2002026
:104280002DE9F0411F4616460D00044630D028683F
:1042900070B3214602F040FE50BB2878C0F30310F3
:1042A0000E2825D039462846FFF7BAFD00281DDB29
:1042B00000EB80011048022300EB810293749460AC
:1042C0003368D360B38813820023D37450F821502D
:1042D0005DB140F82130334604F1270229462046DB
:1042E000FFF79AFF284606F072FC0020BDE8F08137
:1042F0006FF00D00FAE70000DCF200202DE9FE432C
:104300000446408900270D464FF00E080E2872D94A
:1043100066683078B6F80C90C10715D0012806D031
:10432000062237493046FBF7FCFF48B10CE07078B5
:1043300050B9B0785E2807D1607B40F0100002E0F1
:10434000607B40F0080060734846B9F1080F07D061
:10435000B0F5C16F24D0A9F5774088384BD12AE059
:1043600095F82D00800646D528000ED06268D2F858
:104370001A1002918368466819401E40B14204D168
:10438000022302A9921DFFF77BFF6FF00D0120466B
:1043900006F04DFC70BB2946204602F08BFE26E05D
:1043A00095F82D00800626D5224605F127012846DE
:1043B000FFF7D8FC1BE020690090606901906589D7
:1043C00010490E3D08E000BF16F80800CA1908F1B0
:1043D000010882F85C027F1CAF42F5DB204606F044
:1043E000F6FB2B466A460749074802F0B7F800205B
:1043F000BDE8FE83FFE7204606F0E9FBF7E7000093
:1044000068DF0008082C0020782B002010B5044637
:104410000AA02062732084F82E00742084F82F00F4
:10442000084860610848A061204603F09FFE14F828
:104430002D0F40F082002070002010BD6C77697055
:1044400000000000213F0008ED82000870B505461D
:1044500003F0FCFE040009D02A69294690470500B4
:1044600002D0204606F0B3FB284670BD4FF0FF3067
:1044700070BD00002DE9FF4FA7B09B461746AAA0CC
:104480005468FEF739FC20780025DFF8A8826E46D4
:104490004FF0020A4FF0010903287DD00528384665
:1044A00007D006F094FB384606F091FB2BB0BDE830
:1044B000F08F06F08CFB06208DF834508DF800004C
:1044C0008DF8359098F814104846474629B10129CF
:1044D00006D0022907D003290AD08DF8360004E05F
:1044E0008DF8360006E08DF836508DF8370003E081
:1044F0008DF836508DF837508F4C94F86000401E80
:10450000C0B28DF83800082801D98DF838A094F889
:1045100052008DF839009DF83800062802D009288D
:104520000DD014E0E069CDF84B00A069CDF847004C
:10453000606ACDF85300206ACDF84F0007E0CDF84F
:104540004B50CDF84750CDF85350CDF84F50DDF8D3
:104550004B20DDF8471079A0FEF7CEFBDDF85320A5
:10456000DDF84F1079A0FEF7C7FB7348D0F8C016EE
:104570001091B0F8C406ADF8440014F83C0F8DF863
:104580003A0060788DF83B00A0788DF83C006079A7
:104590008DF83D00A07900E02FE08DF83E00E07935
:1045A0008DF83F00387E8DF84000787E8DF8410010
:1045B000B87E8DF84200F87E8DF84300387F8DF884
:1045C0004400787F8DF8450023220DA9701CFBF76D
:1045D0007DFE00223321104606F09CF907003FF4CF
:1045E00065AF332269467868FBF770FE5A46394654
:1045F000349B289809F01EF855E754F8012FC8F8A5
:1046000000206168C8F80810A368C8F80430277B48
:104610004046012F05D0A57B002D7DD080F814A049
:1046200005E0A77B0FB1057501E080F81490657C6B
:1046300080F82250E57C80F82450A57C80F8235037
:10464000247D80F8264050F80C4F19941692CDE93D
:10465000173141684FEA31411A918168C27A09BA2B
:1046600021F0FF0111431B91C168C27B09BA21F0FF
:10467000FF0111431C910169C27C09BA21F0FF01BD
:1046800011431D914169182209BA21F0FF01294304
:104690001E91816998F8270009BA21F0FF010143B2
:1046A00004201F918DF8000020A9701CFBF70EFE5E
:1046B00000223321104606F02DF904008FD033225A
:1046C00069466068FBF702FE5A462146349B2898EB
:1046D00008F0B0FF204606F07AFA3D20FDF7BEFB59
:1046E0002520FDF7BBFB0720FDF7B8FB4720FDF7B2
:1046F000B5FB0A2216A91948FDF75AF842F21071C3
:104700000220401C8842FCDBBFF34F8F1448016835
:10471000144A01F4E06100E004E011430160BFF3DA
:104720004F8FFEE703257EE7434647207265630A05
:10473000000000009C020020082C00206F666673B9
:1047400065743D25642E25640A00000064656C6173
:10475000793D25642E25640A0000000000001E0833
:104760000CED00E00400FA0570B50646C8680C467A
:10477000401CC860012805D1316821603168616042
:1047800000216181B4F908500121A940814203DD73
:1047900005F0F1FD054600E0E160216830688142E6
:1047A00000DD084605F0E7FDC0F11E00854200DB94
:1047B0000546B4F90A00A84205DD6168A0EB0500D2
:1047C00041FA00F105E005DA6168A5EB000001FAA5
:1047D00000F1616030682168A0EB01006168084465
:1047E000606040FA05F020606581306070BD0000B7
:1047F0000846054910B50C6804F1270194F82620F5
:10480000FBF764FD606810BDA00000200021A8B186
:10481000B0F5803F01D3000C1021FF2801D9000A18
:104820000831102801D30009091D042801D380088C
:10483000891C022800D3491C084670474FF0FF30FE
:104840007047000007490968C9070AD0054980393F
:104850000968C90705D04FF060410A68002AFCD0FA
:1048600008707047800E00E010B5002821D0114B71
:104870000022001F196803E0814203D80A464968F4
:104880000029F9D152B11368841A9C4204D10068FE
:1048900018441060104602E0506000E0186039B122
:1048A00002680B1A934203D10B681A4402604968EC
:1048B000416010BD2001002010B50446001D00F02D
:1048C0004AF804F10C0000F050F804F1180000F070
:1048D00042F804F1200000F03EF804F12800BDE8A1
:1048E000104000F038B88068083000F034B8818893
:1048F00042F2080291420FDA42F2010291420BDACF
:10490000042909DA012904D0022905D1806800F0C0
:1049100022B88068FFF7D0BF704770B50446806B3F
:10492000002817D08168002581B10188012902D0B3
:10493000022903D004E0FFF7DAFF01E0FFF7D3FF1D
:10494000A06B8068FFF790FFA06B8560A06BFFF7FE
:104950008BFFA56370BD10B504464068002803D0E6
:10496000FFF782FF0020606010BD10B5044640686C
:10497000002803D0FFF778FF0020606010BD0268B8
:10498000002A07DB4368002B04DB0A60406888606C
:10499000002088807047012181400220B0EB410F48
:1049A00002D9B0EE000A704700EE101AF0EE000ACD
:1049B000B8EE400A20EE200A70471CB5044668464F
:1049C000FCF702FC00982060019860601CBD0000AC
:1049D0002DE9FF41064600200290039091F89404CF
:1049E0000C4601F21C5580B92946002005F0B0FAAA
:1049F000002809DA6846FFF7E0FFDDE900121EA093
:104A0000FEF77AF921A024E02AD004F5177102AA52
:104A10000F46284605F020FA031E09DA6846FFF71C
:104A2000CCFFDDE9001214A0FEF766F91DA010E02E
:104A300019D102AA3946284605F04CFA031E11DAAC
:104A40006846FFF7BAFFDDE9001220A0FEF754F92F
:104A500023A0FEF751F922463146022008F054FB0C
:104A6000BDE8FF81FCD0012084F8940402AA21460D
:104A7000304606F008FAF3E728504552524F5220CC
:104A800025642E2530396429200000006661696C98
:104A9000656420746F20706F6C6C20736F636B653E
:104AA000747300006661696C656420746F207265C0
:104AB0006365697665206F6E20746865206576652C
:104AC0006E7420736F636B6574000000284552524A
:104AD0004F522025642E2530396429200000000023
:104AE00068616E646C653A206661696C6564207407
:104AF0006F2072656365697665206F6E20746865E6
:104B00002067656E6572616C20736F636B65740AF4
:104B1000000000002DE9FC5F0C9C1E460746402962
:104B200006DAD4F89406401CC4F89406BDE8FC9F4D
:104B300094F860104FF0010804F5177A4FF47A7575
:104B400004F5936B04F1B0090A297AD2DFE801F089
:104B5000C0050505C0C0C0860B0BD4F87806401C04
:104B6000C4F87806E2E7002AE0D196F8560010B1C2
:104B7000387A400766D584F880803946204602F0AE
:104B80006AFE00287ED00128D0D14946504604F064
:104B9000C5FE334622464946384606F059FBB4F96D
:104BA0007E10606F01EB410202EBC101302202EB8B
:104BB000C1010844282239465434FBF787FBB4F975
:104BC0002A10206A01EB410202EBC1010C2202EB28
:104BD000C101084424224946FBF778FB14F8540924
:104BE0000027012813D194F8550080B96846FFF7D3
:104BF000E4FEDDE9001244A0FEF77EF847A0FEF7D0
:104C00007BF884F8547084F84D7084F84E7094F9F1
:104C10006C0094F86D10002801DD854001E04042F1
:104C2000C54069435A46032008F02EFAB0690028AF
:104C300098D0D4F87005002894DD6846FFF7BDFED3
:104C400001E045E04CE0DDE9001243A0FEF754F836
:104C500046A0FEF751F8C4F8707567E7002AFCD14A
:104C600096F8560010B1387A400739D5D4F82006A6
:104C70003946401CC4F8200684F88080204602F0A3
:104C8000EAFD00E01CE0D8B14946504604F046FE7B
:104C9000334622464946384606F0DAFA94F96C0063
:104CA00094F86D10002801DD854001E04042C540C8
:104CB000694302B05A46BDE8F05F032008F0E4B94A
:104CC00002B0224639465046BDE8F05FFEF735BBDC
:104CD000002AC2D193F8560040B1387A400705D473
:104CE000D4F88006401CC4F880061FE7D4F82006DC
:104CF0002246401CC4F8200639465046FEF71DFBEC
:104D000084F8808012E70000285741524E494E47F0
:104D10002025642E25303964292000004C656170FF
:104D2000207365636F6E64206576656E74206F76A0
:104D30006572202D20726573756D696E6720636CD6
:104D40006F636B20616E64206F6666736574207597
:104D50007064617465730A00284E4F5449434520BE
:104D600025642E25303964292000000052656365D2
:104D70006976656420416E6E6F756E6365206D6542
:104D800073736167652066726F6D206D6173746502
:104D900072202D2063616E63656C6C696E67207490
:104DA000696D656F75740A002DE9F0411646DDE9FD
:104DB000065494F86F20012A11D12C290FDB94F8A6
:104DC00060100A290BD2DFE801F00A050505050A83
:104DD0002705050CD4F87806401CC4F87806BDE811
:104DE000F081002BFBD0408CB4F84C14401C80B2F6
:104DF00088420AD0D4F87806401CC4F87806D4F863
:104E0000A406401CC4F8A406E9E722462946304619
:104E1000BDE8F04106F026B804F57C710F4604F5B4
:104E2000177004F0D4FDD4F838062346401CC4F8AB
:104E300038062A4639463046BDE8F04102F064BEE5
:104E40002DE9F041064693F86F0086B01C461546E2
:104E5000012875D1362973DB94F860000A286FD2D7
:104E6000DFE800F08686868686868686860504F1DB
:104E7000B001884604F5177004F081FD082204F1A2
:104E8000BC0104F15600FBF74CFA002873D1B4F8CA
:104E90005E00B4F8C41088427DD13146204602F04D
:104EA000DAFC002877D094F85904002860D0708C80
:104EB000B4F84C14401C80B2814259D1D4F8400659
:104EC0000027401CC4F8400684F8597441466846DF
:104ED00008F011F90098C4F8BC030198C4F8C003A5
:104EE00002A906F1100006F021FB02AB224629467A
:104EF00004F26C4008F0F0FE95F8600028B194F9D7
:104F00006100E96D884237D11BE094F9611096F990
:104F1000250081422AD07F2816D195F8610098B1EA
:104F2000D4F87C0568B104A8FFF747FDDDE9041259
:104F30001CA0FDF7E1FE96F925101F48EA6D27E059
:104F400016E095F85C000FE004A8FFF736FDDDE9F8
:104F5000041214A0FDF7D0FE94F9612016F9251F64
:104F600016A0FDF7C9FE307884F86100C4F87C759E
:104F700006B0BDE8F0810EE004A8FFF71EFDDDE9F4
:104F800004121EA0FDF7B8FE94F961201FA0E96D80
:104F9000FDF7B2FED5E7D4F87806401CC4F87806D1
:104FA000E6E70000284E4F544943452025642E254E
:104FB000303964292000000074DF00085265636501
:104FC00069766564206E65772044656C617920524E
:104FD00065717565737420696E74657276616C2095
:104FE00025642066726F6D204D6173746572202890
:104FF0007761733A202564290A00000028494E464B
:105000004F2025642E253039642920004E657720F5
:1050100044656C6179205265717565737420696EA1
:1050200074657276616C206170706C6965643A2099
:10503000256420287761733A202564290A0000003E
:105040002DE9F0411D460C460646069F01F016FF6D
:10505000A06B02210180A06B878096F8352000208C
:105060006AB1012A0BD0022A0CD084F83500A16B5A
:1050700089680D8048600872C860BDE8F08184F8D6
:105080003510F4E70421FAE7F0B587B01E460C9C12
:1050900005462C2906DAD4F89406401CC4F8940678
:1050A00007B0F0BD002AFBD194F860000A28F7D2BF
:1050B000DFE800F0054D4D4D4D0553530606EFE773
:1050C0002946204602F0C7FBD8B3D4F83006401C6E
:1050D000C4F8300695F8250084F86E0094F858045A
:1050E00078B3B4F85404698C88422BD1002504F1BC
:1050F000B0010F4604F51770C4F8885304F057FC4C
:1051000084F85854394604A807F0F5FF02A904F1C1
:10511000980006F00BFA02A904F587620846FEF72C
:10512000A6F902A8CDE90040334604A804F56B7146
:1051300004F25C4208F02EFE2146304608F05EFD87
:10514000AEE704E0D4F8A406401CC4F8A406D4F8E2
:105150007806401CC4F87806A2E72946204602F0EB
:105160007AFB9DE7F8B515460C46064601F086FE2B
:10517000A16B012042F20A070880A16B8F8096F88C
:105180003510B1B101290DD002290AD0A06BFFF76B
:105190006BFB062000903B462A4621463046FFF72F
:1051A0004FFFF8BDB16B8968097885F86D1085F8F7
:1051B0008000022084F83500A06B95F86D1080689F
:1051C000017000214170F8BDF8B515460C46064641
:1051D00001F054FEA16B012042F210070880A16B80
:1051E0008F8096F83510A9B101290DD002290AD077
:1051F000A06BFFF739FB062000903B462A4621466C
:105200003046FFF71DFFF8BDB16B896809786973F7
:1052100085F88000022084F83500A06B697B8068E7
:10522000017000214170F8BD2DE9F84390460C460D
:10523000054601F023FEA16B012006270880A16B23
:10524000888095F8350068B1022809D0A06BFFF777
:105250000BFB01234246214628460097FFF7F0FE4C
:10526000BDE8F883022684F83560A06B3821846895
:105270002046FBF744F880202070002565700A2244
:10528000227118A1A068FBF721F8A781FF202075E3
:105290006075A075E5752676324615A1E069FBF7C5
:1052A00015F8052284F8202012A1606AFBF70EF899
:1052B00008F291500646FBF72DF8C2B284F8282078
:1052C0003146E06AFBF702F884F8305084F8315038
:1052D00084F8325084F8335084F8345084F83550D0
:1052E000BEE7000049454545203830322E330000E6
:1052F0003B3B00003B3B322E33000000F0B587B053
:1053000015460C46074601F0B9FDA16B012042F29B
:1053100001060880A06B868097F8350070B10228DE
:105320000AD0A06BFFF7A0FA0620009033462A4669
:1053300021463846FFF784FE07B0F0BD022084F80E
:105340003500A06B04AA8468A88A20800020CDE9DB
:105350000400D5E9060101F0C9FDDDE90401C4E955
:1053600002010020CDE90200D5E9080102AA01F0FE
:10537000BDFDDDE90201C4E90401DDE7F8B515462C
:105380000C46074601F07AFDA16B01204603088018
:10539000A06B868097F8350068B102280AD0A06B10
:1053A000FFF762FA0620009033462A462146384627
:1053B000FFF746FEF8BD022084F83500A06B29787F
:1053C00000268468E87C400040EA51002070667046
:1053D00068896080287C2071687BE071287BA071DF
:1053E000E8892081687CA072691C04F10B00FEF73B
:1053F000AFF9A87CE0742675F8BDF8B515460C46E3
:10540000064601F03BFDA16B01204FF4C047088028
:10541000A16B8F8096F83510B1B101290DD002290A
:105420000AD0A06BFFF720FA062000903B462A46E0
:1054300021463046FFF704FEF8BDB16B8968097854
:1054400085F86F1085F88000022084F83500A06B85
:1054500095F86F108068017000214170F8BDF8B5B3
:1054600016460C46074601F009FDA16B012042F2E9
:105470000E050880A06B858097F8350003280BD0B7
:10548000A06BFFF7F1F9062000902B46324621462B
:105490003846FFF7D5FDF8BD042084F83500032019
:1054A00086F86000F8BDF8B515460C46064601F0D2
:1054B000E5FCA16B012042F207070880A16B8F80F9
:1054C00096F83510A9B101290DD002290AD0A06B98
:1054D000FFF7CAF9062000903B462A46214630468F
:1054E000FFF7AEFDF8BDB16B89680978A97485F83E
:1054F0008000022084F83500A06BA97C80680170D0
:1055000000214170F8BDF8B515460C46074601F07C
:10551000B5FCA16B012042F20D060880A16B8E80C4
:1055200097F8351003290BD0A06BFFF79DF90620E3
:10553000009033462A4621463846FFF781FDF8BDE4
:10554000042184F8351095F860100329F7D185F807
:105550006000F8BD7047F8B516460C46054601F0E8
:105560008DFCA06B01210180A26B0520908095F835
:10557000350003280DD004280AD0A06BFFF774F97A
:10558000062000900523324621462846FFF758FDA5
:10559000F8BD042084F83500A86BA26B806892687F
:1055A00003880BB986F8601000881080F8BDF8B544
:1055B00015460C46064601F061FCA16B012042F243
:1055C00009070880A16B8F8096F83510B1B10129C9
:1055D0000DD002290AD0A06BFFF746F906200090F3
:1055E0003B462A4621463046FFF72AFDF8BDB16BFF
:1055F0008968097885F86C1085F88000022084F8A5
:105600003500A06B95F86C10806801700021417026
:10561000F8BDF8B515460C46064601F02FFCA16B07
:10562000012046F201070880A16B8F8096F83510A3
:10563000B1B101290DD002290AD0A06BFFF714F9EE
:10564000062000903B462A4621463046FFF7F8FCEC
:10565000F8BDB16B8968097885F8701085F880000D
:10566000022084F83500A06B95F8701080680170F6
:1056700000214170F8BDF8B515460C46064601F00C
:10568000FDFBA16B012042F20B070880A16B8F800C
:1056900096F83510B1B101290DD002290AD0A06BBE
:1056A000FFF7E2F8062000903B462A4621463046A6
:1056B000FFF7C6FCF8BDB16B8968097885F86E10F4
:1056C00085F88000022084F83500A06B95F86E10F4
:1056D0008068017000214170F8BDF8B516460C468F
:1056E000054601F0CBFBA16B01200880A16B0020D7
:1056F000888095F8350000280ED001280CD00328AA
:105700000AD0A06BFFF7B0F80620009000233246C5
:1057100021462846FFF794FCF8BDF8B514460D461F
:10572000074601F0ABFBA96B012042F2020608809C
:10573000A86B868097F8350068B102280AD0A86B5C
:10574000FFF792F806200090334622462946384655
:10575000FFF776FCF8BD022085F83500A86B04F150
:10576000280185682846FEF72CF894F83200A872C4
:105770000020E872A08EA881A06B286194F84800F0
:10578000287594F84500E87594F84400A875B4F8B5
:105790004600288394F84900A87604F13C0105F1FD
:1057A0001B00BDE8F840FDF7D3BF2DE9FF411446CB
:1057B0000D46074601F062FBA96B012042F2040688
:1057C0000880A86B868097F8350070B102280AD04F
:1057D000A86BFFF749F80620009033462246294679
:1057E0003846FFF72DFCBDE8FF81022085F8350023
:1057F000A86B04F1560185682846FDF7E2FF14F80E
:10580000600FA8726078E872D4E9010102AA01F081
:105810006DFB207B2876607B6876A07BA876E07B9A
:10582000E876207C287700206877607CA877DAE724
:10583000F8B515460C46064601F020FBA16B012089
:1058400042F205070880A16B8F8096F83510A9B148
:1058500001290DD002290AD0A06BFFF705F8062018
:1058600000903B462A4621463046FFF7E9FBF8BD4B
:10587000B16B89680978297485F88000022084F862
:105880003500A06B297C8068017000214170F8BD53
:10589000F8B515460C46064601F0F0FAA16B01205A
:1058A00042F206070880A16B8F8096F83510A9B1E7
:1058B00001290DD002290AD0A06BFEF7D5FF0620E2
:1058C00000903B462A4621463046FFF7B9FBF8BD1B
:1058D000B16B89680978697485F88000022084F8C2
:1058E0003500A06B697C8068017000214170F8BDB3
:1058F000F8B515460C46064601F0C0FAA16B01202A
:105900000880A16B04208880A06BFEF7ADFF062005
:10591000009004232A4621463046FFF791FBF8BD4C
:10592000F8B515460C46064601F0A8FAA16B012011
:105930000880A16B03208880A06BFEF795FF0620EE
:10594000009003232A4621463046FFF779FBF8BD35
:10595000F8B515460C46064601F090FAA16B0120F9
:1059600042F208070880A16B8F8096F8351099B134
:1059700001290BD0A06BFEF777FF062000903B4675
:105980002A4621463046FFF75BFBF8BDB16B8968BC
:105990000978E97485F88000022084F83500A06B4E
:1059A000E97C8068017000214170F8BD2DE9FE435B
:1059B000984615460C46074601F060FAA16B012097
:1059C00042F20F060880A06B868097F8350080B100
:1059D00001280ED002280AD0A06BFEF745FF062052
:1059E000009033462A4621463846FFF729FBBDE89A
:1059F000FE83022084F83500A06B846801A8FEF7BE
:105A0000DCFF2946404605F019FC012804D1B5F910
:105A10004A10019808440190214601A8FEF7AFFF03
:105A2000204607F067FBE2E7F8B515460C46074647
:105A300001F024FAA16B012042F203060880A06B5A
:105A4000868097F8350068B102280AD0A06BFEF76F
:105A50000BFF0620009033462A4621463846FFF7C2
:105A6000EFFAF8BD022084F83500A06B35F84A1F24
:105A700080680180297AC170F8BDF8B515460C46DA
:105A8000064601F0FBF9A06B012142F212070180EA
:105A9000A06B878096F83500E8B101280DD0022868
:105AA0000AD0A06BFEF7E0FE062000903B462A4697
:105AB00021463046FFF7C4FAF8BDB06B8068027823
:105AC000C2F3401285F850200078C0F3001005F8AA
:105AD0004F0F85F83110022084F83500A06B0021AB
